{
  "contractName": "MultiSigWalletFactory",
  "abi": [
    {
      "inputs": [
        {
          "internalType": "address[2]",
          "name": "_owners",
          "type": "address[2]"
        }
      ],
      "name": "createWallet",
      "outputs": [
        {
          "internalType": "uint256",
          "name": "",
          "type": "uint256"
        }
      ],
      "stateMutability": "nonpayable",
      "type": "function"
    }
  ],
  "bytecode": "0x608060405234801561001057600080fd5b506102b2806100206000396000f3fe608060405234801561001057600080fd5b506004361061002b5760003560e01c80639c074ae314610030575b600080fd5b61004a6004803603810190610045919061021b565b610060565b6040516100579190610261565b60405180910390f35b6000919050565b6000604051905090565b600080fd5b600080fd5b6000601f19601f8301169050919050565b7f4e487b7100000000000000000000000000000000000000000000000000000000600052604160045260246000fd5b6100c48261007b565b810181811067ffffffffffffffff821117156100e3576100e261008c565b5b80604052505050565b60006100f6610067565b905061010282826100bb565b919050565b600067ffffffffffffffff8211156101225761012161008c565b5b602082029050919050565b600080fd5b600073ffffffffffffffffffffffffffffffffffffffff82169050919050565b600061015d82610132565b9050919050565b61016d81610152565b811461017857600080fd5b50565b60008135905061018a81610164565b92915050565b60006101a361019e84610107565b6100ec565b905080602084028301858111156101bd576101bc61012d565b5b835b818110156101e657806101d2888261017b565b8452602084019350506020810190506101bf565b5050509392505050565b600082601f83011261020557610204610076565b5b6002610212848285610190565b91505092915050565b60006040828403121561023157610230610071565b5b600061023f848285016101f0565b91505092915050565b6000819050919050565b61025b81610248565b82525050565b60006020820190506102766000830184610252565b9291505056fea2646970667358221220dc444f0ef7d7cce40e1398b583bda8586a80dd0043df8e55fe5eca166ca2353364736f6c634300080f0033",
  "immutableReferences": {},
  "source": "// SPDX-License-Identifier: MIT\npragma solidity >=0.7.0 <0.9.0;\n\nimport \"./MultiSigWallet.sol\";\n\ncontract MultiSigWalletFactory {\n    function createWallet(address[2] memory _owners) public returns (uint256)\n    {\n        // return 10;\n        // MultiSigWallet Wallet = new MultiSigWallet(_owners);\n        // return address(Wallet).balance;\n    }\n}",
  "sourcePath": "/Users/donghyun/Desktop/MultiSigWallet/contracts/MultiSigWalletFactory.sol",
  "compiler": {
    "name": "solc",
    "version": "0.8.15+commit.e14f2714.Emscripten.clang"
  },
  "schemaVersion": "3.4.8",
  "updatedAt": "2022-07-25T11:50:26.303Z",
  "networkType": "ethereum",
  "devdoc": {
    "kind": "dev",
    "methods": {},
    "version": 1
  },
  "userdoc": {
    "kind": "user",
    "methods": {},
    "version": 1
  }
}