{
  "contractName": "MultiSigWallet",
  "abi": [
    {
      "inputs": [
        {
          "internalType": "address[2]",
          "name": "_owners",
          "type": "address[2]"
        }
      ],
      "stateMutability": "nonpayable",
      "type": "constructor"
    },
    {
      "inputs": [
        {
          "internalType": "uint256",
          "name": "",
          "type": "uint256"
        }
      ],
      "name": "owners",
      "outputs": [
        {
          "internalType": "address",
          "name": "",
          "type": "address"
        }
      ],
      "stateMutability": "view",
      "type": "function"
    },
    {
      "inputs": [],
      "name": "getAddress",
      "outputs": [
        {
          "internalType": "address",
          "name": "",
          "type": "address"
        }
      ],
      "stateMutability": "view",
      "type": "function"
    }
  ],
  "bytecode": "0x608060405234801561001057600080fd5b506040516104ab3803806104ab833981810160405281019061003291906102a5565b80600090600261004392919061004a565b50506102d2565b8280548282559060005260206000209081019282156100c3579160200282015b828111156100c25782518260006101000a81548173ffffffffffffffffffffffffffffffffffffffff021916908373ffffffffffffffffffffffffffffffffffffffff1602179055509160200191906001019061006a565b5b5090506100d091906100d4565b5090565b5b808211156100ed5760008160009055506001016100d5565b5090565b6000604051905090565b600080fd5b600080fd5b6000601f19601f8301169050919050565b7f4e487b7100000000000000000000000000000000000000000000000000000000600052604160045260246000fd5b61014e82610105565b810181811067ffffffffffffffff8211171561016d5761016c610116565b5b80604052505050565b60006101806100f1565b905061018c8282610145565b919050565b600067ffffffffffffffff8211156101ac576101ab610116565b5b602082029050919050565b600080fd5b600073ffffffffffffffffffffffffffffffffffffffff82169050919050565b60006101e7826101bc565b9050919050565b6101f7816101dc565b811461020257600080fd5b50565b600081519050610214816101ee565b92915050565b600061022d61022884610191565b610176565b90508060208402830185811115610247576102466101b7565b5b835b81811015610270578061025c8882610205565b845260208401935050602081019050610249565b5050509392505050565b600082601f83011261028f5761028e610100565b5b600261029c84828561021a565b91505092915050565b6000604082840312156102bb576102ba6100fb565b5b60006102c98482850161027a565b91505092915050565b6101ca806102e16000396000f3fe608060405234801561001057600080fd5b50600436106100365760003560e01c8063025e7c271461003b57806338cc48311461006b575b600080fd5b6100556004803603810190610050919061010b565b610089565b6040516100629190610179565b60405180910390f35b6100736100c8565b6040516100809190610179565b60405180910390f35b6000818154811061009957600080fd5b906000526020600020016000915054906101000a900473ffffffffffffffffffffffffffffffffffffffff1681565b600030905090565b600080fd5b6000819050919050565b6100e8816100d5565b81146100f357600080fd5b50565b600081359050610105816100df565b92915050565b600060208284031215610121576101206100d0565b5b600061012f848285016100f6565b91505092915050565b600073ffffffffffffffffffffffffffffffffffffffff82169050919050565b600061016382610138565b9050919050565b61017381610158565b82525050565b600060208201905061018e600083018461016a565b9291505056fea2646970667358221220fab6e3a94cafdc50276aaf7c47de4e5d129d447471fb7206595efb10531eea2c64736f6c634300080f0033",
  "immutableReferences": {},
  "source": "// SPDX-License-Identifier: MIT\npragma solidity >=0.7.0 <0.9.0;\n\ncontract MultiSigWallet {\n    //  \n    address[] public owners;\n    \n    // struct\n\n    // modifier\n\n    // event\n\n    // enum \n\n    // constructor\n    constructor(address[2] memory _owners) {\n        owners = _owners;\n    }\n\n    // function\n    function getAddress() public view returns (address) {\n        return address(this);\n    }\n}",
  "sourcePath": "/Users/donghyun/Desktop/MultiSigWallet/contracts/MultiSigWallet.sol",
  "compiler": {
    "name": "solc",
    "version": "0.8.15+commit.e14f2714.Emscripten.clang"
  },
  "schemaVersion": "3.4.8",
  "updatedAt": "2022-07-25T11:49:35.315Z",
  "devdoc": {
    "kind": "dev",
    "methods": {},
    "version": 1
  },
  "userdoc": {
    "kind": "user",
    "methods": {},
    "version": 1
  }
}