{
  "contractName": "MultiSigWallet",
  "abi": [
    {
      "inputs": [
        {
          "internalType": "address[2]",
          "name": "_owners",
          "type": "address[2]"
        }
      ],
      "stateMutability": "payable",
      "type": "constructor",
      "payable": true
    },
    {
      "anonymous": false,
      "inputs": [
        {
          "indexed": true,
          "internalType": "uint256",
          "name": "transactionCount",
          "type": "uint256"
        },
        {
          "components": [
            {
              "internalType": "address",
              "name": "receipt",
              "type": "address"
            },
            {
              "internalType": "uint256",
              "name": "value",
              "type": "uint256"
            },
            {
              "internalType": "bool",
              "name": "isExecuted",
              "type": "bool"
            }
          ],
          "indexed": false,
          "internalType": "struct MultiSigWallet.Transaction",
          "name": "transaction",
          "type": "tuple"
        }
      ],
      "name": "Add",
      "type": "event"
    },
    {
      "anonymous": false,
      "inputs": [
        {
          "indexed": false,
          "internalType": "bool",
          "name": "isConfirm",
          "type": "bool"
        },
        {
          "indexed": false,
          "internalType": "address",
          "name": "owner",
          "type": "address"
        }
      ],
      "name": "Confirmation",
      "type": "event"
    },
    {
      "anonymous": false,
      "inputs": [
        {
          "indexed": false,
          "internalType": "address",
          "name": "receipt",
          "type": "address"
        },
        {
          "indexed": false,
          "internalType": "uint256",
          "name": "value",
          "type": "uint256"
        }
      ],
      "name": "Execute",
      "type": "event"
    },
    {
      "inputs": [
        {
          "internalType": "address",
          "name": "_receipt",
          "type": "address"
        },
        {
          "internalType": "uint256",
          "name": "_value",
          "type": "uint256"
        }
      ],
      "name": "addTransaction",
      "outputs": [],
      "stateMutability": "nonpayable",
      "type": "function"
    },
    {
      "inputs": [
        {
          "internalType": "uint256",
          "name": "_transactionId",
          "type": "uint256"
        }
      ],
      "name": "confirmTransaction",
      "outputs": [],
      "stateMutability": "nonpayable",
      "type": "function"
    },
    {
      "inputs": [
        {
          "internalType": "uint256",
          "name": "_transactionId",
          "type": "uint256"
        }
      ],
      "name": "executeTransaction",
      "outputs": [],
      "stateMutability": "nonpayable",
      "type": "function"
    }
  ],
  "bytecode": "0x608060405260405162000f2038038062000f20833981810160405281019062000029919062000352565b8060019060026200003c929190620000da565b5060005b6002811015620000d25760016003600084846002811062000066576200006562000384565b5b602002015173ffffffffffffffffffffffffffffffffffffffff1673ffffffffffffffffffffffffffffffffffffffff16815260200190815260200160002060006101000a81548160ff0219169083151502179055508080620000c990620003ec565b91505062000040565b505062000439565b826002810192821562000149579160200282015b82811115620001485782518260006101000a81548173ffffffffffffffffffffffffffffffffffffffff021916908373ffffffffffffffffffffffffffffffffffffffff16021790555091602001919060010190620000ee565b5b5090506200015891906200015c565b5090565b5b80821115620001775760008160009055506001016200015d565b5090565b6000604051905090565b600080fd5b600080fd5b6000601f19601f8301169050919050565b7f4e487b7100000000000000000000000000000000000000000000000000000000600052604160045260246000fd5b620001da826200018f565b810181811067ffffffffffffffff82111715620001fc57620001fb620001a0565b5b80604052505050565b6000620002116200017b565b90506200021f8282620001cf565b919050565b600067ffffffffffffffff821115620002425762000241620001a0565b5b602082029050919050565b600080fd5b600073ffffffffffffffffffffffffffffffffffffffff82169050919050565b60006200027f8262000252565b9050919050565b620002918162000272565b81146200029d57600080fd5b50565b600081519050620002b18162000286565b92915050565b6000620002ce620002c88462000224565b62000205565b90508060208402830185811115620002eb57620002ea6200024d565b5b835b81811015620003185780620003038882620002a0565b845260208401935050602081019050620002ed565b5050509392505050565b600082601f8301126200033a57620003396200018a565b5b600262000349848285620002b7565b91505092915050565b6000604082840312156200036b576200036a62000185565b5b60006200037b8482850162000322565b91505092915050565b7f4e487b7100000000000000000000000000000000000000000000000000000000600052603260045260246000fd5b7f4e487b7100000000000000000000000000000000000000000000000000000000600052601160045260246000fd5b6000819050919050565b6000620003f982620003e2565b91507fffffffffffffffffffffffffffffffffffffffffffffffffffffffffffffffff82036200042e576200042d620003b3565b5b600182019050919050565b610ad780620004496000396000f3fe608060405234801561001057600080fd5b50600436106100415760003560e01c806384a3727314610046578063c01a8c8414610062578063ee22610b1461007e575b600080fd5b610060600480360381019061005b9190610701565b61009a565b005b61007c60048036038101906100779190610741565b610214565b005b61009860048036038101906100939190610741565b61036c565b005b600360003373ffffffffffffffffffffffffffffffffffffffff1673ffffffffffffffffffffffffffffffffffffffff16815260200190815260200160002060009054906101000a900460ff166100f057600080fd5b6000808154809291906101029061079d565b919050555060405180606001604052808373ffffffffffffffffffffffffffffffffffffffff16815260200182815260200160001515815250600460008054815260200190815260200160002060008201518160000160006101000a81548173ffffffffffffffffffffffffffffffffffffffff021916908373ffffffffffffffffffffffffffffffffffffffff1602179055506020820151816001015560408201518160020160006101000a81548160ff0219169083151502179055509050506000547f90f72366807b534611cb566558b6c4ea635a7e15b4cf8af3b65ed214cc085f2560046000805481526020019081526020016000206040516102089190610915565b60405180910390a25050565b600360003373ffffffffffffffffffffffffffffffffffffffff1673ffffffffffffffffffffffffffffffffffffffff16815260200190815260200160002060009054906101000a900460ff1661026a57600080fd5b60016005600083815260200190815260200160002060003373ffffffffffffffffffffffffffffffffffffffff1673ffffffffffffffffffffffffffffffffffffffff16815260200190815260200160002060006101000a81548160ff0219169083151502179055507f906fe8aadcc681d43169012c50f3af173d7a4174915bd00da66f5c9e979229b86005600083815260200190815260200160002060003373ffffffffffffffffffffffffffffffffffffffff1673ffffffffffffffffffffffffffffffffffffffff16815260200190815260200160002060009054906101000a900460ff163360405161036192919061094e565b60405180910390a150565b600360003373ffffffffffffffffffffffffffffffffffffffff1673ffffffffffffffffffffffffffffffffffffffff16815260200190815260200160002060009054906101000a900460ff166103c257600080fd5b6000600460008381526020019081526020016000206040518060600160405290816000820160009054906101000a900473ffffffffffffffffffffffffffffffffffffffff1673ffffffffffffffffffffffffffffffffffffffff1673ffffffffffffffffffffffffffffffffffffffff168152602001600182015481526020016002820160009054906101000a900460ff16151515158152505090506000151581604001511515146104aa576040517f08c379a00000000000000000000000000000000000000000000000000000000081526004016104a1906109d4565b60405180910390fd5b600115156104b783610598565b1515146104c357600080fd5b60018160400190151590811515815250506000816000015173ffffffffffffffffffffffffffffffffffffffff16826020015160405161050290610a25565b60006040518083038185875af1925050503d806000811461053f576040519150601f19603f3d011682016040523d82523d6000602084013e610544565b606091505b505090508061055257600080fd5b7f892cd8f5b436bd5fb7dac1f11aafb73345d892ba3e9fe09cd94d95ba84928e738260000151836020015160405161058b929190610a49565b60405180910390a1505050565b600080600090505b600281101561065d57600560008481526020019081526020016000206000600183600281106105d2576105d1610a72565b5b0160009054906101000a900473ffffffffffffffffffffffffffffffffffffffff1673ffffffffffffffffffffffffffffffffffffffff1673ffffffffffffffffffffffffffffffffffffffff16815260200190815260200160002060009054906101000a900460ff1661064a576000915050610663565b80806106559061079d565b9150506105a0565b50600190505b919050565b600080fd5b600073ffffffffffffffffffffffffffffffffffffffff82169050919050565b60006106988261066d565b9050919050565b6106a88161068d565b81146106b357600080fd5b50565b6000813590506106c58161069f565b92915050565b6000819050919050565b6106de816106cb565b81146106e957600080fd5b50565b6000813590506106fb816106d5565b92915050565b6000806040838503121561071857610717610668565b5b6000610726858286016106b6565b9250506020610737858286016106ec565b9150509250929050565b60006020828403121561075757610756610668565b5b6000610765848285016106ec565b91505092915050565b7f4e487b7100000000000000000000000000000000000000000000000000000000600052601160045260246000fd5b60006107a8826106cb565b91507fffffffffffffffffffffffffffffffffffffffffffffffffffffffffffffffff82036107da576107d961076e565b5b600182019050919050565b60008160001c9050919050565b600073ffffffffffffffffffffffffffffffffffffffff82169050919050565b6000610825610820836107e5565b6107f2565b9050919050565b6108358161068d565b82525050565b6000819050919050565b6000610858610853836107e5565b61083b565b9050919050565b610868816106cb565b82525050565b600060ff82169050919050565b600061088e610889836107e5565b61086e565b9050919050565b60008115159050919050565b6108aa81610895565b82525050565b6060820160008083015490506108c581610812565b6108d2600086018261082c565b50600183015490506108e381610845565b6108f0602086018261085f565b50600283015490506109018161087b565b61090e60408601826108a1565b5050505050565b600060608201905061092a60008301846108b0565b92915050565b61093981610895565b82525050565b6109488161068d565b82525050565b60006040820190506109636000830185610930565b610970602083018461093f565b9392505050565b600082825260208201905092915050565b7f616c726561647920657865637574656400000000000000000000000000000000600082015250565b60006109be601083610977565b91506109c982610988565b602082019050919050565b600060208201905081810360008301526109ed816109b1565b9050919050565b600081905092915050565b50565b6000610a0f6000836109f4565b9150610a1a826109ff565b600082019050919050565b6000610a3082610a02565b9150819050919050565b610a43816106cb565b82525050565b6000604082019050610a5e600083018561093f565b610a6b6020830184610a3a565b9392505050565b7f4e487b7100000000000000000000000000000000000000000000000000000000600052603260045260246000fdfea264697066735822122078e264599b473753e67400c49482106f398ee4f066b046182cd96992339749e764736f6c634300080f0033",
  "immutableReferences": {},
  "source": "// SPDX-License-Identifier: MIT\npragma solidity >=0.7.0 <0.9.0;\n\ncontract MultiSigWallet {\n    \n    // storage\n    uint transactionCount;\n    address[2] owners;\n    mapping (address => bool) isOwner;\n    mapping (uint => Transaction) transactions;\n    mapping (uint => mapping (address => bool)) confirmation;\n\n    // struct\n    struct Transaction {\n        address receipt;\n        uint value;\n        bool isExecuted;\n    }\n\n    // modifier\n    modifier onlyOwners() {\n        require(isOwner[msg.sender]);\n        _;\n    }\n\n    // event\n    event Add (uint indexed transactionCount, Transaction transaction);\n    event Confirmation(bool isConfirm, address owner);\n    event Execute(address receipt, uint value);\n\n    // enum \n\n    // constructor\n    constructor(address[2] memory _owners) payable {\n        owners = _owners;\n        for (uint i=0; i < _owners.length; i++) {\n            isOwner[_owners[i]] = true;\n        }\n    }\n\n    // function\n    function addTransaction(address _receipt, uint _value) onlyOwners() public {\n\n        transactionCount++;\n\n        transactions[transactionCount] = Transaction({\n            receipt: _receipt,\n            value: _value,\n            isExecuted: false\n        });\n\n        emit Add(transactionCount, transactions[transactionCount]);\n    }\n\n    function confirmTransaction(uint _transactionId) onlyOwners() public {\n\n        confirmation[_transactionId][msg.sender] = true;\n\n        emit Confirmation(confirmation[_transactionId][msg.sender], msg.sender);\n    }\n\n    function executeTransaction(uint _transactionId) onlyOwners() public {\n\n        Transaction memory target = transactions[_transactionId];\n\n        require(target.isExecuted == false, \"already executed\");\n        require(checkConfirmation(_transactionId) ==  true);\n\n        target.isExecuted = true;\n        \n        (bool success, ) = target.receipt.call{value: target.value}(\"\");\n        require(success);\n        emit Execute(target.receipt, target.value);\n    }\n\n    function checkConfirmation (uint _transactionId) internal view returns (bool) {\n        for (uint i=0; i<owners.length; i++) {\n            if (!confirmation[_transactionId][owners[i]]) {\n                return false;\n            }\n        }\n        return true;\n    }\n\n    // function revokeTransaction(uint _transactionId) onlyOwners() public {\n    //     require(confirmation[_transactionId][msg.sender] = true);\n    //     confirmation[_transactionId][msg.sender] = false;\n    // }\n}\n\n",
  "sourcePath": "/Users/donghyun/Desktop/MultiSigWallet/contracts/MultiSigWallet.sol",
  "compiler": {
    "name": "solc",
    "version": "0.8.15+commit.e14f2714.Emscripten.clang"
  },
  "schemaVersion": "3.4.8",
  "updatedAt": "2022-08-10T06:08:00.889Z",
  "networkType": "ethereum",
  "devdoc": {
    "kind": "dev",
    "methods": {},
    "version": 1
  },
  "userdoc": {
    "kind": "user",
    "methods": {},
    "version": 1
  }
}