{
  "contractName": "MultiSigWalletFactory",
  "abi": [
    {
      "inputs": [
        {
          "internalType": "address[2]",
          "name": "_owners",
          "type": "address[2]"
        }
      ],
      "name": "createWallet",
      "outputs": [
        {
          "internalType": "address",
          "name": "",
          "type": "address"
        }
      ],
      "stateMutability": "nonpayable",
      "type": "function"
    },
    {
      "inputs": [],
      "name": "helloWorld",
      "outputs": [
        {
          "internalType": "string",
          "name": "",
          "type": "string"
        }
      ],
      "stateMutability": "pure",
      "type": "function",
      "constant": true
    }
  ],
  "bytecode": "0x608060405234801561001057600080fd5b506114e5806100206000396000f3fe60806040523480156200001157600080fd5b50600436106200003a5760003560e01c80639c074ae3146200003f578063c605f76c1462000075575b600080fd5b6200005d600480360381019062000057919062000300565b62000097565b6040516200006c919062000343565b60405180910390f35b6200007f620000de565b6040516200008e9190620003f3565b60405180910390f35b60008082604051620000a9906200011b565b620000b59190620004d2565b604051809103906000f080158015620000d2573d6000803e3d6000fd5b50905080915050919050565b60606040518060400160405280600c81526020017f68656c6c6f20776f726c64210000000000000000000000000000000000000000815250905090565b610fc080620004f083390190565b6000604051905090565b600080fd5b600080fd5b6000601f19601f8301169050919050565b7f4e487b7100000000000000000000000000000000000000000000000000000000600052604160045260246000fd5b62000188826200013d565b810181811067ffffffffffffffff82111715620001aa57620001a96200014e565b5b80604052505050565b6000620001bf62000129565b9050620001cd82826200017d565b919050565b600067ffffffffffffffff821115620001f057620001ef6200014e565b5b602082029050919050565b600080fd5b600073ffffffffffffffffffffffffffffffffffffffff82169050919050565b60006200022d8262000200565b9050919050565b6200023f8162000220565b81146200024b57600080fd5b50565b6000813590506200025f8162000234565b92915050565b60006200027c6200027684620001d2565b620001b3565b90508060208402830185811115620002995762000298620001fb565b5b835b81811015620002c65780620002b188826200024e565b8452602084019350506020810190506200029b565b5050509392505050565b600082601f830112620002e857620002e762000138565b5b6002620002f784828562000265565b91505092915050565b60006040828403121562000319576200031862000133565b5b60006200032984828501620002d0565b91505092915050565b6200033d8162000220565b82525050565b60006020820190506200035a600083018462000332565b92915050565b600081519050919050565b600082825260208201905092915050565b60005b838110156200039c5780820151818401526020810190506200037f565b83811115620003ac576000848401525b50505050565b6000620003bf8262000360565b620003cb81856200036b565b9350620003dd8185602086016200037c565b620003e8816200013d565b840191505092915050565b600060208201905081810360008301526200040f8184620003b2565b905092915050565b600060029050919050565b600081905092915050565b6000819050919050565b620004428162000220565b82525050565b600062000456838362000437565b60208301905092915050565b6000602082019050919050565b6200047a8162000417565b62000486818462000422565b925062000493826200042d565b8060005b83811015620004ca578151620004ae878262000448565b9650620004bb8362000462565b92505060018101905062000497565b505050505050565b6000604082019050620004e960008301846200046f565b9291505056fe608060405260405162000fc038038062000fc08339818101604052810190620000299190620002bc565b8060019060026200003c92919062000044565b5050620002ee565b8260028101928215620000b3579160200282015b82811115620000b25782518260006101000a81548173ffffffffffffffffffffffffffffffffffffffff021916908373ffffffffffffffffffffffffffffffffffffffff1602179055509160200191906001019062000058565b5b509050620000c29190620000c6565b5090565b5b80821115620000e1576000816000905550600101620000c7565b5090565b6000604051905090565b600080fd5b600080fd5b6000601f19601f8301169050919050565b7f4e487b7100000000000000000000000000000000000000000000000000000000600052604160045260246000fd5b6200014482620000f9565b810181811067ffffffffffffffff821117156200016657620001656200010a565b5b80604052505050565b60006200017b620000e5565b905062000189828262000139565b919050565b600067ffffffffffffffff821115620001ac57620001ab6200010a565b5b602082029050919050565b600080fd5b600073ffffffffffffffffffffffffffffffffffffffff82169050919050565b6000620001e982620001bc565b9050919050565b620001fb81620001dc565b81146200020757600080fd5b50565b6000815190506200021b81620001f0565b92915050565b60006200023862000232846200018e565b6200016f565b90508060208402830185811115620002555762000254620001b7565b5b835b818110156200028257806200026d88826200020a565b84526020840193505060208101905062000257565b5050509392505050565b600082601f830112620002a457620002a3620000f4565b5b6002620002b384828562000221565b91505092915050565b600060408284031215620002d557620002d4620000ef565b5b6000620002e5848285016200028c565b91505092915050565b610cc280620002fe6000396000f3fe608060405234801561001057600080fd5b50600436106100415760003560e01c806384a3727314610046578063c01a8c8414610062578063ee22610b1461007e575b600080fd5b610060600480360381019061005b91906108ec565b61009a565b005b61007c6004803603810190610077919061092c565b61029c565b005b6100986004803603810190610093919061092c565b610477565b005b60016000600281106100af576100ae610959565b5b0160009054906101000a900473ffffffffffffffffffffffffffffffffffffffff1673ffffffffffffffffffffffffffffffffffffffff163373ffffffffffffffffffffffffffffffffffffffff16148061016a57506001806002811061011957610118610959565b5b0160009054906101000a900473ffffffffffffffffffffffffffffffffffffffff1673ffffffffffffffffffffffffffffffffffffffff163373ffffffffffffffffffffffffffffffffffffffff16145b61017357600080fd5b60008054905060405180606001604052808473ffffffffffffffffffffffffffffffffffffffff168152602001838152602001600015158152506003600083815260200190815260200160002060008201518160000160006101000a81548173ffffffffffffffffffffffffffffffffffffffff021916908373ffffffffffffffffffffffffffffffffffffffff1602179055506020820151816001015560408201518160020160006101000a81548160ff021916908315150217905550905050600080815480929190610246906109b7565b91905055506000547f90f72366807b534611cb566558b6c4ea635a7e15b4cf8af3b65ed214cc085f256003600084815260200190815260200160002060405161028f9190610b2f565b60405180910390a2505050565b60016000600281106102b1576102b0610959565b5b0160009054906101000a900473ffffffffffffffffffffffffffffffffffffffff1673ffffffffffffffffffffffffffffffffffffffff163373ffffffffffffffffffffffffffffffffffffffff16148061036c57506001806002811061031b5761031a610959565b5b0160009054906101000a900473ffffffffffffffffffffffffffffffffffffffff1673ffffffffffffffffffffffffffffffffffffffff163373ffffffffffffffffffffffffffffffffffffffff16145b61037557600080fd5b60016004600083815260200190815260200160002060003373ffffffffffffffffffffffffffffffffffffffff1673ffffffffffffffffffffffffffffffffffffffff16815260200190815260200160002060006101000a81548160ff0219169083151502179055507f906fe8aadcc681d43169012c50f3af173d7a4174915bd00da66f5c9e979229b86004600083815260200190815260200160002060003373ffffffffffffffffffffffffffffffffffffffff1673ffffffffffffffffffffffffffffffffffffffff16815260200190815260200160002060009054906101000a900460ff163360405161046c929190610b68565b60405180910390a150565b600160006002811061048c5761048b610959565b5b0160009054906101000a900473ffffffffffffffffffffffffffffffffffffffff1673ffffffffffffffffffffffffffffffffffffffff163373ffffffffffffffffffffffffffffffffffffffff1614806105475750600180600281106104f6576104f5610959565b5b0160009054906101000a900473ffffffffffffffffffffffffffffffffffffffff1673ffffffffffffffffffffffffffffffffffffffff163373ffffffffffffffffffffffffffffffffffffffff16145b61055057600080fd5b6000600360008381526020019081526020016000206040518060600160405290816000820160009054906101000a900473ffffffffffffffffffffffffffffffffffffffff1673ffffffffffffffffffffffffffffffffffffffff1673ffffffffffffffffffffffffffffffffffffffff168152602001600182015481526020016002820160009054906101000a900460ff1615151515815250509050600015158160400151151514610638576040517f08c379a000000000000000000000000000000000000000000000000000000000815260040161062f90610bee565b60405180910390fd5b60011515600460008481526020019081526020016000206000600160006002811061066657610665610959565b5b0160009054906101000a900473ffffffffffffffffffffffffffffffffffffffff1673ffffffffffffffffffffffffffffffffffffffff1673ffffffffffffffffffffffffffffffffffffffff16815260200190815260200160002060009054906101000a900460ff1615151480156107755750600115156004600084815260200190815260200160002060006001806002811061070757610706610959565b5b0160009054906101000a900473ffffffffffffffffffffffffffffffffffffffff1673ffffffffffffffffffffffffffffffffffffffff1673ffffffffffffffffffffffffffffffffffffffff16815260200190815260200160002060009054906101000a900460ff161515145b61077e57600080fd5b60018160400190151590811515815250506000816000015173ffffffffffffffffffffffffffffffffffffffff1682602001516040516107bd90610c3f565b60006040518083038185875af1925050503d80600081146107fa576040519150601f19603f3d011682016040523d82523d6000602084013e6107ff565b606091505b505090508061080d57600080fd5b7f892cd8f5b436bd5fb7dac1f11aafb73345d892ba3e9fe09cd94d95ba84928e7382600001518360200151604051610846929190610c63565b60405180910390a1505050565b600080fd5b600073ffffffffffffffffffffffffffffffffffffffff82169050919050565b600061088382610858565b9050919050565b61089381610878565b811461089e57600080fd5b50565b6000813590506108b08161088a565b92915050565b6000819050919050565b6108c9816108b6565b81146108d457600080fd5b50565b6000813590506108e6816108c0565b92915050565b6000806040838503121561090357610902610853565b5b6000610911858286016108a1565b9250506020610922858286016108d7565b9150509250929050565b60006020828403121561094257610941610853565b5b6000610950848285016108d7565b91505092915050565b7f4e487b7100000000000000000000000000000000000000000000000000000000600052603260045260246000fd5b7f4e487b7100000000000000000000000000000000000000000000000000000000600052601160045260246000fd5b60006109c2826108b6565b91507fffffffffffffffffffffffffffffffffffffffffffffffffffffffffffffffff82036109f4576109f3610988565b5b600182019050919050565b60008160001c9050919050565b600073ffffffffffffffffffffffffffffffffffffffff82169050919050565b6000610a3f610a3a836109ff565b610a0c565b9050919050565b610a4f81610878565b82525050565b6000819050919050565b6000610a72610a6d836109ff565b610a55565b9050919050565b610a82816108b6565b82525050565b600060ff82169050919050565b6000610aa8610aa3836109ff565b610a88565b9050919050565b60008115159050919050565b610ac481610aaf565b82525050565b606082016000808301549050610adf81610a2c565b610aec6000860182610a46565b5060018301549050610afd81610a5f565b610b0a6020860182610a79565b5060028301549050610b1b81610a95565b610b286040860182610abb565b5050505050565b6000606082019050610b446000830184610aca565b92915050565b610b5381610aaf565b82525050565b610b6281610878565b82525050565b6000604082019050610b7d6000830185610b4a565b610b8a6020830184610b59565b9392505050565b600082825260208201905092915050565b7f616c726561647920657865637574656400000000000000000000000000000000600082015250565b6000610bd8601083610b91565b9150610be382610ba2565b602082019050919050565b60006020820190508181036000830152610c0781610bcb565b9050919050565b600081905092915050565b50565b6000610c29600083610c0e565b9150610c3482610c19565b600082019050919050565b6000610c4a82610c1c565b9150819050919050565b610c5d816108b6565b82525050565b6000604082019050610c786000830185610b59565b610c856020830184610c54565b939250505056fea26469706673582212202435b4e760cc1822b13d4e87c3112d39f0b1acb0cee29751cf62d9df7a94113e64736f6c634300080f0033a2646970667358221220fe689ac06c0cfad8734c58d328eab8fa3da0171083cfd361da6feae1044a514b64736f6c634300080f0033",
  "immutableReferences": {},
  "source": "// SPDX-License-Identifier: MIT\npragma solidity >=0.7.0 <0.9.0;\n\nimport \"./MultiSigWallet.sol\";\n\ncontract MultiSigWalletFactory {\n    function createWallet(address[2] memory _owners) public returns (address)\n    {\n        MultiSigWallet wallet = new MultiSigWallet(_owners);\n        return address(wallet);\n    }\n    function helloWorld () public pure returns (string memory) {\n        return \"hello world!\";\n    }\n}",
  "sourcePath": "/Users/donghyun/Desktop/MultiSigWallet/contracts/MultiSigWalletFactory.sol",
  "compiler": {
    "name": "solc",
    "version": "0.8.15+commit.e14f2714.Emscripten.clang"
  },
  "schemaVersion": "3.4.8",
  "updatedAt": "2022-08-05T11:06:09.861Z",
  "networkType": "ethereum",
  "devdoc": {
    "kind": "dev",
    "methods": {},
    "version": 1
  },
  "userdoc": {
    "kind": "user",
    "methods": {},
    "version": 1
  }
}