{
  "contractName": "MultiSigWallet",
  "abi": [
    {
      "inputs": [
        {
          "internalType": "address[2]",
          "name": "_owners",
          "type": "address[2]"
        }
      ],
      "stateMutability": "payable",
      "type": "constructor",
      "payable": true
    },
    {
      "anonymous": false,
      "inputs": [
        {
          "indexed": true,
          "internalType": "uint256",
          "name": "transactionCount",
          "type": "uint256"
        },
        {
          "components": [
            {
              "internalType": "address",
              "name": "receipt",
              "type": "address"
            },
            {
              "internalType": "uint256",
              "name": "value",
              "type": "uint256"
            },
            {
              "internalType": "bool",
              "name": "isExecuted",
              "type": "bool"
            }
          ],
          "indexed": false,
          "internalType": "struct MultiSigWallet.Transaction",
          "name": "transaction",
          "type": "tuple"
        }
      ],
      "name": "Add",
      "type": "event"
    },
    {
      "anonymous": false,
      "inputs": [
        {
          "indexed": false,
          "internalType": "bool",
          "name": "isConfirm",
          "type": "bool"
        },
        {
          "indexed": false,
          "internalType": "address",
          "name": "owner",
          "type": "address"
        }
      ],
      "name": "Confirmation",
      "type": "event"
    },
    {
      "anonymous": false,
      "inputs": [
        {
          "indexed": false,
          "internalType": "address",
          "name": "receipt",
          "type": "address"
        },
        {
          "indexed": false,
          "internalType": "uint256",
          "name": "value",
          "type": "uint256"
        }
      ],
      "name": "Execute",
      "type": "event"
    },
    {
      "inputs": [
        {
          "internalType": "address",
          "name": "_receipt",
          "type": "address"
        },
        {
          "internalType": "uint256",
          "name": "_value",
          "type": "uint256"
        }
      ],
      "name": "addTransaction",
      "outputs": [],
      "stateMutability": "nonpayable",
      "type": "function"
    },
    {
      "inputs": [
        {
          "internalType": "uint256",
          "name": "_transactionId",
          "type": "uint256"
        }
      ],
      "name": "confirmTransaction",
      "outputs": [],
      "stateMutability": "nonpayable",
      "type": "function"
    },
    {
      "inputs": [
        {
          "internalType": "uint256",
          "name": "_transactionId",
          "type": "uint256"
        }
      ],
      "name": "executeTransaction",
      "outputs": [],
      "stateMutability": "nonpayable",
      "type": "function"
    }
  ],
  "bytecode": "0x608060405260405162000fc038038062000fc08339818101604052810190620000299190620002bc565b8060019060026200003c92919062000044565b5050620002ee565b8260028101928215620000b3579160200282015b82811115620000b25782518260006101000a81548173ffffffffffffffffffffffffffffffffffffffff021916908373ffffffffffffffffffffffffffffffffffffffff1602179055509160200191906001019062000058565b5b509050620000c29190620000c6565b5090565b5b80821115620000e1576000816000905550600101620000c7565b5090565b6000604051905090565b600080fd5b600080fd5b6000601f19601f8301169050919050565b7f4e487b7100000000000000000000000000000000000000000000000000000000600052604160045260246000fd5b6200014482620000f9565b810181811067ffffffffffffffff821117156200016657620001656200010a565b5b80604052505050565b60006200017b620000e5565b905062000189828262000139565b919050565b600067ffffffffffffffff821115620001ac57620001ab6200010a565b5b602082029050919050565b600080fd5b600073ffffffffffffffffffffffffffffffffffffffff82169050919050565b6000620001e982620001bc565b9050919050565b620001fb81620001dc565b81146200020757600080fd5b50565b6000815190506200021b81620001f0565b92915050565b60006200023862000232846200018e565b6200016f565b90508060208402830185811115620002555762000254620001b7565b5b835b818110156200028257806200026d88826200020a565b84526020840193505060208101905062000257565b5050509392505050565b600082601f830112620002a457620002a3620000f4565b5b6002620002b384828562000221565b91505092915050565b600060408284031215620002d557620002d4620000ef565b5b6000620002e5848285016200028c565b91505092915050565b610cc280620002fe6000396000f3fe608060405234801561001057600080fd5b50600436106100415760003560e01c806384a3727314610046578063c01a8c8414610062578063ee22610b1461007e575b600080fd5b610060600480360381019061005b91906108ec565b61009a565b005b61007c6004803603810190610077919061092c565b61029c565b005b6100986004803603810190610093919061092c565b610477565b005b60016000600281106100af576100ae610959565b5b0160009054906101000a900473ffffffffffffffffffffffffffffffffffffffff1673ffffffffffffffffffffffffffffffffffffffff163373ffffffffffffffffffffffffffffffffffffffff16148061016a57506001806002811061011957610118610959565b5b0160009054906101000a900473ffffffffffffffffffffffffffffffffffffffff1673ffffffffffffffffffffffffffffffffffffffff163373ffffffffffffffffffffffffffffffffffffffff16145b61017357600080fd5b60008054905060405180606001604052808473ffffffffffffffffffffffffffffffffffffffff168152602001838152602001600015158152506003600083815260200190815260200160002060008201518160000160006101000a81548173ffffffffffffffffffffffffffffffffffffffff021916908373ffffffffffffffffffffffffffffffffffffffff1602179055506020820151816001015560408201518160020160006101000a81548160ff021916908315150217905550905050600080815480929190610246906109b7565b91905055506000547f90f72366807b534611cb566558b6c4ea635a7e15b4cf8af3b65ed214cc085f256003600084815260200190815260200160002060405161028f9190610b2f565b60405180910390a2505050565b60016000600281106102b1576102b0610959565b5b0160009054906101000a900473ffffffffffffffffffffffffffffffffffffffff1673ffffffffffffffffffffffffffffffffffffffff163373ffffffffffffffffffffffffffffffffffffffff16148061036c57506001806002811061031b5761031a610959565b5b0160009054906101000a900473ffffffffffffffffffffffffffffffffffffffff1673ffffffffffffffffffffffffffffffffffffffff163373ffffffffffffffffffffffffffffffffffffffff16145b61037557600080fd5b60016004600083815260200190815260200160002060003373ffffffffffffffffffffffffffffffffffffffff1673ffffffffffffffffffffffffffffffffffffffff16815260200190815260200160002060006101000a81548160ff0219169083151502179055507f906fe8aadcc681d43169012c50f3af173d7a4174915bd00da66f5c9e979229b86004600083815260200190815260200160002060003373ffffffffffffffffffffffffffffffffffffffff1673ffffffffffffffffffffffffffffffffffffffff16815260200190815260200160002060009054906101000a900460ff163360405161046c929190610b68565b60405180910390a150565b600160006002811061048c5761048b610959565b5b0160009054906101000a900473ffffffffffffffffffffffffffffffffffffffff1673ffffffffffffffffffffffffffffffffffffffff163373ffffffffffffffffffffffffffffffffffffffff1614806105475750600180600281106104f6576104f5610959565b5b0160009054906101000a900473ffffffffffffffffffffffffffffffffffffffff1673ffffffffffffffffffffffffffffffffffffffff163373ffffffffffffffffffffffffffffffffffffffff16145b61055057600080fd5b6000600360008381526020019081526020016000206040518060600160405290816000820160009054906101000a900473ffffffffffffffffffffffffffffffffffffffff1673ffffffffffffffffffffffffffffffffffffffff1673ffffffffffffffffffffffffffffffffffffffff168152602001600182015481526020016002820160009054906101000a900460ff1615151515815250509050600015158160400151151514610638576040517f08c379a000000000000000000000000000000000000000000000000000000000815260040161062f90610bee565b60405180910390fd5b60011515600460008481526020019081526020016000206000600160006002811061066657610665610959565b5b0160009054906101000a900473ffffffffffffffffffffffffffffffffffffffff1673ffffffffffffffffffffffffffffffffffffffff1673ffffffffffffffffffffffffffffffffffffffff16815260200190815260200160002060009054906101000a900460ff1615151480156107755750600115156004600084815260200190815260200160002060006001806002811061070757610706610959565b5b0160009054906101000a900473ffffffffffffffffffffffffffffffffffffffff1673ffffffffffffffffffffffffffffffffffffffff1673ffffffffffffffffffffffffffffffffffffffff16815260200190815260200160002060009054906101000a900460ff161515145b61077e57600080fd5b60018160400190151590811515815250506000816000015173ffffffffffffffffffffffffffffffffffffffff1682602001516040516107bd90610c3f565b60006040518083038185875af1925050503d80600081146107fa576040519150601f19603f3d011682016040523d82523d6000602084013e6107ff565b606091505b505090508061080d57600080fd5b7f892cd8f5b436bd5fb7dac1f11aafb73345d892ba3e9fe09cd94d95ba84928e7382600001518360200151604051610846929190610c63565b60405180910390a1505050565b600080fd5b600073ffffffffffffffffffffffffffffffffffffffff82169050919050565b600061088382610858565b9050919050565b61089381610878565b811461089e57600080fd5b50565b6000813590506108b08161088a565b92915050565b6000819050919050565b6108c9816108b6565b81146108d457600080fd5b50565b6000813590506108e6816108c0565b92915050565b6000806040838503121561090357610902610853565b5b6000610911858286016108a1565b9250506020610922858286016108d7565b9150509250929050565b60006020828403121561094257610941610853565b5b6000610950848285016108d7565b91505092915050565b7f4e487b7100000000000000000000000000000000000000000000000000000000600052603260045260246000fd5b7f4e487b7100000000000000000000000000000000000000000000000000000000600052601160045260246000fd5b60006109c2826108b6565b91507fffffffffffffffffffffffffffffffffffffffffffffffffffffffffffffffff82036109f4576109f3610988565b5b600182019050919050565b60008160001c9050919050565b600073ffffffffffffffffffffffffffffffffffffffff82169050919050565b6000610a3f610a3a836109ff565b610a0c565b9050919050565b610a4f81610878565b82525050565b6000819050919050565b6000610a72610a6d836109ff565b610a55565b9050919050565b610a82816108b6565b82525050565b600060ff82169050919050565b6000610aa8610aa3836109ff565b610a88565b9050919050565b60008115159050919050565b610ac481610aaf565b82525050565b606082016000808301549050610adf81610a2c565b610aec6000860182610a46565b5060018301549050610afd81610a5f565b610b0a6020860182610a79565b5060028301549050610b1b81610a95565b610b286040860182610abb565b5050505050565b6000606082019050610b446000830184610aca565b92915050565b610b5381610aaf565b82525050565b610b6281610878565b82525050565b6000604082019050610b7d6000830185610b4a565b610b8a6020830184610b59565b9392505050565b600082825260208201905092915050565b7f616c726561647920657865637574656400000000000000000000000000000000600082015250565b6000610bd8601083610b91565b9150610be382610ba2565b602082019050919050565b60006020820190508181036000830152610c0781610bcb565b9050919050565b600081905092915050565b50565b6000610c29600083610c0e565b9150610c3482610c19565b600082019050919050565b6000610c4a82610c1c565b9150819050919050565b610c5d816108b6565b82525050565b6000604082019050610c786000830185610b59565b610c856020830184610c54565b939250505056fea26469706673582212202435b4e760cc1822b13d4e87c3112d39f0b1acb0cee29751cf62d9df7a94113e64736f6c634300080f0033",
  "immutableReferences": {},
  "source": "// SPDX-License-Identifier: MIT\npragma solidity >=0.7.0 <0.9.0;\n\ncontract MultiSigWallet {\n    \n    // storage\n    uint transactionCount;\n    address[2] owners;\n    mapping (uint => Transaction) transactions;\n    mapping (uint => mapping (address => bool)) confirmation;\n\n    // struct\n    struct Transaction {\n        address receipt;\n        uint value;\n        bool isExecuted;\n    }\n\n    // modifier\n    modifier onlyOwners() {\n        require(msg.sender == owners[0] || msg.sender == owners[1] );\n        _;\n    }\n\n    // event\n    event Add (uint indexed transactionCount, Transaction transaction);\n    event Confirmation(bool isConfirm, address owner);\n    event Execute(address receipt, uint value);\n\n    // enum \n\n    // constructor\n    constructor(address[2] memory _owners) payable{\n        owners = _owners;\n    }\n\n    // function\n    function addTransaction(address _receipt, uint _value) onlyOwners() public {\n\n        uint transactionId = transactionCount;\n\n        transactions[transactionId] = Transaction({\n            receipt: _receipt,\n            value: _value,\n            isExecuted: false\n        });\n\n        transactionCount++;\n\n        emit Add(transactionCount, transactions[transactionId]);\n    }\n\n    function confirmTransaction(uint _transactionId) onlyOwners() public {\n\n        confirmation[_transactionId][msg.sender] = true;\n        emit Confirmation(confirmation[_transactionId][msg.sender], msg.sender);\n    }\n\n    function executeTransaction(uint _transactionId) onlyOwners() public {\n\n        Transaction memory target = transactions[_transactionId];\n\n        require(target.isExecuted == false, \"already executed\");\n        require(confirmation[_transactionId][owners[0]] == true && confirmation[_transactionId][owners[1]] == true);\n\n        target.isExecuted = true;\n        \n        (bool success, ) = target.receipt.call{value: target.value}(\"\");\n        require(success);\n        emit Execute(target.receipt, target.value);\n    }\n\n}\n",
  "sourcePath": "/Users/donghyun/Desktop/MultiSigWallet/contracts/MultiSigWallet.sol",
  "compiler": {
    "name": "solc",
    "version": "0.8.15+commit.e14f2714.Emscripten.clang"
  },
  "schemaVersion": "3.4.8",
  "updatedAt": "2022-08-05T11:06:09.858Z",
  "networkType": "ethereum",
  "devdoc": {
    "kind": "dev",
    "methods": {},
    "version": 1
  },
  "userdoc": {
    "kind": "user",
    "methods": {},
    "version": 1
  }
}